:020000040800F2
:10000000E8100020010100088D300008D927000801
:10001000893000087D0900083D4600080000000006
:10002000000000000000000000000000CD300008CB
:10003000790C00080000000091300008D130000861
:100040001B0100081B0100081B0100081B01000820
:100050001B0100081B0100081B0100081B01000810
:100060001B0100081B0100081B0100081B01000800
:100070001B0100081B0100081B0100081B010008F0
:100080001B0100081B0100081B0100081B010008E0
:10009000F14400081B0100081B0100081B010008B7
:1000A0001B0100081B0100081B0100081B010008C0
:1000B0001B0100081B0100081B0100081B010008B0
:1000C0001B0100081B0100081B0100081B010008A0
:1000D0001B0100081B010008ED3000081B0100088F
:1000E0001B0100081B0100081B010008DFF80CD0F1
:1000F00000F070FB00480047E5530008E8100020BE
:100100000648804706480047FEE7FEE7FEE7FEE7B1
:10011000FEE7FEE7FEE7FEE7FEE7FEE7E930000860
:10012000ED000008421C10F8011B0029FBD1801AC9
:10013000704770B5064605F01FFB046805460A22A5
:100140000021304600F032FA2C6070BD2DE9FE4FE0
:10015000804681EA0300C00F0C46009021F0004168
:1001600023F00045B8EB0200A94105D240462146E4
:1001700090461C460B46024623F00040104347D0F1
:10018000270DC7F30A00C3F30A510290401A0190E9
:1001900040286BDAC3F3130040F4801B00989246AA
:1001A00020B10023D2EB030A63EB0B0B01985946F5
:1001B000C0F14002504600F0D8F906460D465046C0
:1001C0005946019A00F0E0F910EB08006141002463
:1001D00087EA115284EAE7731A4340D0009A62B367
:1001E000019A012A4FEA075215DC001B61EB02015C
:1001F0004FF0004202EA0752CDE90042001C41F5EF
:10020000801132462B4600F04FFA03B0BDE8F08F64
:1002100040462146F9E7001B61EB0201001C41F555
:10022000801300185B412018A2F5001747EB03016B
:1002300040EAD570B6196D4111E06D084FEA3606F7
:1002400045EAC0754FEA0752001B61EB0201001C32
:1002500041F5801149084FEA3000001951413246FA
:100260002B4603B0BDE8F04F00F00FBA0098012212
:1002700040000023D0EB020263EBE07300982146BC
:100280004FEAE074B8EB000061EB0401E9E783F0AA
:1002900000435BE781F0004158E72DE9FE4F81EA1A
:1002A000030404F0004421F0004100944FF0000BDF
:1002B00023F0004350EA01045ED052EA03045BD00D
:1002C000C3F30A54C1F30A552C44A4F2F334019445
:1002D000A0FB0254C1F3130141F48011C3F31303D3
:1002E00043F4801301FB024400FB034E840A970A87
:1002F00044EA815447EA8357A4FB076802958D0AB4
:1003000005FB07854FEA932C04FB0C542705029D3F
:100310004FEA065847EA1637B5EB08056EEB070CAF
:10032000870E920E47EA811742EA8312A7FB020169
:10033000B6EB0B0164EB00042B0D43EA0C335E18A3
:1003400044EB1C50DA465146E7FB0201C5F31304A7
:100350004FEA0B3343EA14534FEA0432019C43EA59
:100360000603A4F10C040294009CCDE900B400F053
:100370009BF903B0BDE8F08F00200146F9E72DE9B5
:10038000F04D81EA030404F0004B21F000451446CF
:100390004FF0000A23F0004150EA050220D054EA51
:1003A00001021DD0C5F30A570246C5F31303C1F37A
:1003B0001300C1F30A5640F4801543F48013A7EBF1
:1003C0000608101BD64608F2FD3873EB050002D371
:1003D00008F1010801E092185B41B8F1000F03DA5F
:1003E00000200146BDE8F08D00204FF48011064644
:1003F00084460EE0171B73EB050705D3121B63EB56
:10040000050306434CEA010C49084FEA30009218F4
:100410005B4150EA0107EDD152EA030012D082EAB3
:10042000040083EA0501084305D0101BAB4106D246
:100430000122002306E000224FF0004302E06FF0AB
:10044000010253101AEB06004CEB085110EB0A00A6
:1004500041EB0B01BDE8F04D00F017B90EB5C10F2F
:1004600080EAE0700844CA07002140F233438DE877
:100470000E000A460B4600F017F903B000BD00F06D
:10048000004230F000400AD0C10D01F56071C0F3A8
:10049000160042EA0151C20840071143704700208C
:1004A0000146704701F0004330B421F0004150EAAA
:1004B000010206D00A0DA2F56072C1F31301002AF1
:1004C00002DC30BC00207047440F44EAC104C10084
:1004D000E01830BC00EBC25000F0A0B830B50B46BD
:1004E000014600202022012409E021FA02F59D4264
:1004F00005D303FA02F5491B04FA02F52844151E38
:10050000A2F10102F1DC30BD2DE9F05F05460020CB
:1005100092469B4688460646814640241BE0284674
:1005200041464746224600F067F953465A46C01AEC
:10053000914110D311461846224600F016F82D1AA4
:1005400067EB01084F4622460120002100F00DF81C
:1005500017EB00094E41201EA4F10104DFDC4846E0
:1005600031462A464346BDE8F09F202A04DB203A64
:1005700000FA02F1002070479140C2F1200320FAF6
:1005800003F3194390407047202A06DBCB17203A2B
:1005900041FA02F043EAE07306E041FA02F3D04088
:1005A000C2F1200291400843194670472DE9F047F7
:1005B00091460F4680460446002614F8015B2DB193
:1005C00000F02AF90068405DC007F6D12B2D02D05B
:1005D0002D2D18D0641E4A463946204600F020F9D9
:1005E00027B13968A14201D1C7F8008071054FF0E9
:1005F00002040BD54042002803DD05F0BDF804607D
:10060000A007BDE8F08746F48066E4E70028F8DA42
:1006100005F0B2F804606FF00040F2E70029A8BFCF
:100620007047401C490008BF20F00100704710B41B
:10063000B0FA80FC00FA0CF050EA010404BF10BCD0
:10064000704749B1CCF1200421FA04F411FA0CF1FD
:1006500018BF012121430843A3EB0C01CB1D4FEA36
:1006600000614FEA102042BF002010BC704700EB31
:10067000C35010440029A4BF10BC7047401C49005F
:1006800008BF20F0010010BC704710B5141E73F1B4
:10069000000408DA401C41F1000192185B411A4342
:1006A00001D120F0010010BD2DE9F04D92469B468E
:1006B00011B1B1FA81F202E0B0FA80F22032904634
:1006C000FFF753FF04460F4640EA0A0041EA0B01D8
:1006D00053465A46084313D0114653EA010019D035
:1006E000C8F14002504600F087F805460E465046D5
:1006F00059464246FFF739FF084305D0012004E080
:1007000020463946BDE8F08D0020054346EAE076F4
:100710002C4337430A986305E40AA0EB0800002243
:10072000FD0A44EA47540A3002D500200146E9E7B1
:10073000010510196941DDE9084500196941BDE865
:10074000F04DA2E770B521F0004303430CD0C1F394
:100750000A550024D5EB040564EB0403D617AD1A43
:10076000B34102DB0020014670BD201841EB02516D
:1007700070BDC1F30A52C1F3130140F2FF3341F4DB
:1007800080119A4202DA00200146704740F233435A
:100790009A42A2F2334202DC524200F02DB8FFF737
:1007A000E4BE000030B5041E71F1000404DB4FF01C
:1007B0000044404264EB0101141E73F1000405DBA8
:1007C0001C464FF00043524263EB0403994208BFBA
:1007D000904230BD064C074D06E0E06840F0010352
:1007E00094E8070098471034AC42F6D3FFF782FC38
:1007F000FC6C00081C6D0008202A04DB203A21FA5A
:1008000002F00021704721FA02F3D040C2F1200229
:10081000914008431946704700487047A46C00088F
:100820002DE9F05F82460078002715468B460AF1D5
:100830000104B946302801D09DB113E014F8010B32
:100840000127782803D0582801D045B10AE00DB11E
:10085000102D07D10027102514F8010B02E0082500
:1008600000E00A250026B0460EE005FB080005FB67
:1008700006F1012701EB10461FFA80F8B6F5803F1C
:1008800000D3B94614F8010B294600F069F8002896
:10089000EBDABBF1000F05D00FB1641E00E0544647
:1008A000CBF80040B9F1000F06D004F065FF02213B
:1008B0000160C81EBDE8F09F48EA0640FAE72DE94E
:1008C000F04D00231A461B1A8A4103DB0020014623
:1008D000BDE8F08DC1F30A52C1F3130141F4801554
:1008E0004FF0000BD10702D100186D41521E0027B6
:1008F000044640F2FF11384601EB620A3E4680464C
:10090000024600204FF48011FFF776FFC2197141B3
:10091000BB1846EB0100B4EB030C75EB000C04D3E1
:10092000E41A65EB000517460E46241908F101008C
:100930006D4180463428E3DDF91946EB0600091BBA
:10094000A84103D24FF0FF32134601E000221346C4
:100950001BEB070046EB0A51BDE8F04DFFF795BED3
:100960003A2800D2303820F02002412A01D3A2F1E7
:100970003700884201D34FF0FF307047FEE7000098
:10098000002070470020704780B540F26430C2F20A
:100990000000D0F8180240F2DC210278C2F2000117
:1009A00043780A70027990F802C090F803E04B7027
:1009B00043790A7182794B71C3798A71027ACB715A
:1009C000437A0A72827A4B72C37A8A72027BCB7242
:1009D000437B0A73827B4B73C37B8A73027CCB732A
:1009E000437C0A74827C4B74C37C8A74027DCB7412
:1009F000437D0A75827D4B75C37D8A75027ECB75FA
:100A0000437E0A76827E4B76C37E8A76027FCB76E1
:100A1000437F0A77827F4B77C37F8A7790F82020C5
:100A2000CB7790F8213081F8202090F8222081F8AF
:100A3000213090F8233081F8222090F8242081F88A
:100A4000233090F8253081F8242090F8262081F872
:100A5000253090F8273081F8262090F8282081F85A
:100A6000273090F8293081F8282090F82A2081F842
:100A7000293090F82B3081F82A2090F82C2081F82A
:100A80002B3090F82D3081F82C2090F82E2081F812
:100A90002D3090F82F3081F82E2090F8302081F8FA
:100AA0002F3090F8313081F8302090F8322081F8E2
:100AB000313090F8333081F8322090F8342081F8CA
:100AC000333090F8353081F8342090F8362081F8B2
:100AD000353090F8373081F8362090F8382081F89A
:100AE000373090F8393081F8382090F83A2081F882
:100AF000393090F83B3081F83A2090F83C2081F86A
:100B00003B3090F83D3081F83C2090F83E2081F851
:100B10003D3090F83F3081F83E2090F84020002092
:100B200081F802C081F803E081F83F3081F840206D
:100B300080BD00002DE9F04381B089468046FFF773
:100B4000F1FA40F2601EC2F2000EDEF8043000221C
:100B50004FF4FA7C01E000BF0132D3F80012D3F861
:100B60000462B14210D0D3F8041298F80060595CC6
:100B7000B14209D1D3F80012D3F80462B1422FD1A7
:100B800000218142E9D173E0D3F80412595C09F8DD
:100B90000210DEF80430D3F8041201316FF35F2144
:100BA000C3F80412D3F80012D3F80462891BC905F4
:100BB000D2D1D3F80012D3F80462891BC90501BF52
:100BC000D3F80012D3F80462891B5FEAC151C3D184
:100BD000D3F80012D3F80462891BC905E2D0BBE741
:100BE00003F5017603F50077002103E03D683468E2
:100BF000A542C6D0D3F8044218F801501C5DAC429F
:100C0000BFD13C683568AC4206D1FF230131814237
:100C100009F802300CD12BE034681B5D34680134D4
:100C20006FF35F2434600131814209F802301FD034
:100C3000DEF80430013203F5007703F50176AEF8F3
:100C400000C03C683568641BE405CFD13C6835685A
:100C5000641BE40501BF3C683568641B5FEAC4544B
:100C6000C4D13C683568641BE405EAD0BEE700BF28
:100C7000012001B0BDE8F08370470000EFF3108061
:100C800072B600BFFEE70000B0B5044600F01EF9E2
:100C9000054640F20400C2F200000078611C18BF53
:100CA000044400BF00F012F9401BA042FAD3B0BDCB
:100CB0002DE9F04F82B00E68002E00F0038141F262
:100CC0000042C4F20102042340F2004E904208BFE9
:100CD00003234FF6FF7CC4F2010E0093002401238E
:100CE000C1F2100C4FF0000A4FF0000949E000BFBC
:100CF000012704F00C030F229A402BEA020207FAA4
:100D000003F34FEA9A051A4346F82520D1F804B0B8
:100D100040F20C455FEACB22DEF8082054BF22EAFD
:100D2000080242EA0802C4F20105CEF808202A6847
:100D30005FEA8B2354BF22EA080242EA08022A60D3
:100D40005FEA8B33DEF8042054BF22EA080242EA4D
:100D500008025FEACB33CEF80420DEF800204FF023
:100D6000010354BF22EA080242EA0802CEF800203A
:100D70000E680AF1010A36FA0AF204F1040400F0DE
:100D8000A18003FA0AF816EA080FF1D04E6866450A
:100D900012DC122E56D8DFE806F0350B45495555C2
:100DA00055555555555555555555554D510000BF3F
:100DB000D1F80C9046E000BF4FF6FF72C1F221025D
:100DC00096420FDC0022C1F2110296421AD0002294
:100DD000C1F21202964215D00022C1F221029642BF
:100DE00010D02FE00022C1F2220296420AD0002247
:100DF000C1F23102964205D00022C1F2320296427F
:100E000020D100BF8A684AB1012A14BFC0F81480FB
:100E1000C0F810804FF0080914E000BF4FF004093B
:100E200010E000BFCA6802F108090BE04FF00009AA
:100E300008E000BFCA6802F1040903E0CA6802F1D1
:100E40000C0900BF22460646BAF1080F24BF203A1B
:100E5000043637680F25954027EA050509FA02F29E
:100E60002A433260CA79D2067FF582AF41F2180375
:100E7000C4F202031A68AEF57E7642F001021A60EF
:100E80001A6802F001020192019A2AF0030256F850
:100E900002B040F60002C4F20102904210D040F6C7
:100EA0000042C4F2010290423FF422AF41F200023C
:100EB000C4F20102009F904208BF022719E700BF59
:100EC000002716E702B0BDE8F08F000040F6E040D2
:100ED000C2F200000068704770B5B8B3044690F8DD
:100EE0003D0028B9002084F83C00204600F002FBB9
:100EF000242084F83D002068016821F00101016090
:100F0000016841F400410160016821F40041016081
:100F100001F094F948F28041C0F21E0140F600133E
:100F2000D4F804E088424FF00001C0F23D0348F2DB
:100F3000A16C4FF0000238BF01219842C0F2010CB1
:100F400038BF0122E64538BF0A460AB1012070BD0C
:100F50004DF68361C4F21B31A0FB01122168950C90
:100F60004B684FF4967623F03F0343EA9243754370
:100F700044F6D3564B60C1F262060B6AA5FB0656D7
:100F8000B50923F03F03E64538BF950C6A1C1A43A8
:100F90000A62CA6948F2A0664CF6FF73C0F2010605
:100FA000B64522EA03020BD801384FEA4E03B0FBE4
:100FB000F3F001306FF31F30042898BF04201EE0C7
:100FC000A368013863B119230EFB03F3B0FBF3F000
:100FD00001306FF31F3078B100F5804008E000BFAA
:100FE0000EEB4E03B0FBF3F001306FF31F3028B16E
:100FF00000F5004003E000BF012000E001201043A5
:10100000C8610868D4E9072320F0C00010431843E2
:101010000860886848F2FF3204F10C0690434CCE19
:1010200018431043A5698860C86820F0FF0030436A
:101030002843C860086840F00100086000202021B3
:10104000206484F83D10206384F83E0070BD0000E9
:101050002DE9F04F85B004460020994616460F460C
:101060000490FFF733FF94F83D10202927D105465F
:10107000206800BF816989071CD5FFF727FF411B46
:1010800020681A29F6D381698907F3D50020202129
:10109000206384F83D1084F83E00206C04F13C0A83
:1010A00040F020002064022000218AF8001005B0E2
:1010B000BDE8F08FA2461AF83C1F012904D1022096
:1010C00005B0BDE8F08F00BF01228AF80020036858
:1010D000DDE90F180E9ADB0703D1036843F0010323
:1010E0000360036823F400630360222084F83D005A
:1010F000402084F83E000020206462626185608D9B
:10110000394620850020CFF6FF70E0622046324647
:101110004B46CDF80080019501F060FB20B1012025
:1011200005B0BDE8F08F00BF208D022810D0012847
:1011300024D0002838D10020039020684169039111
:10114000816903910399016841F40071016037E0FE
:101150002068016841F400610160EFF3108072B60D
:1011600000200390206841690391816903910399EC
:10117000016821F48061016062B621E020680168A5
:1011800021F480610160EFF3108072B600200390BB
:10119000206841690391816903910399016841F4D1
:1011A0000071016062B60BE02068016841F4806163
:1011B00001600021039141690391806903900398C4
:1011C000208D002800F0CA80042740F248094BF225
:1011D000895BC0F20107C2F20009C1F2F84B232675
:1011E00017E000BF204641462A4601F0A1FD002835
:1011F00095D12068616A00690870606A218D0130AC
:101200006062481E2085618D01396185010400F00E
:10121000A58080B2032865D8022800F07F800128CD
:10122000E0D02046394600224346009501F026FCD6
:1012300000287FF474AF2068016821F480610160A8
:10124000EFF3108072B62068616A00690870606A06
:10125000218D0130013960622185618D01396185FF
:10126000D9F80010C908A1FB0B12110A71430491AF
:101270000499013904910499002900F07B802168C8
:101280004A6952071DD4049901390491049900292F
:1012900070D021684A69520713D404990139049126
:1012A0000499002966D021684A69520709D4049933
:1012B00001390491049900295CD021684A695207D8
:1012C000D6D50A6842F400720A6009690170606A42
:1012D000218D01306062481E2085608D0138608557
:1012E00062B686E7204641462A4601F021FD0028E5
:1012F0007FF415AF2068616A00690870606A22682F
:10130000411C208D616201382085638D013B63851E
:1013100053695B077FF57AAF10696DE72046394660
:1013200000224346009501F0A9FB00287FF4F7AEA8
:10133000EFF3108072B62068616A026842F40072AE
:10134000026000690870606A218D01306062481E89
:101350002085608D0138608562B64AE7202084F8D8
:101360003D00002084F83E0000218AF8001005B0FE
:10137000BDE8F08F00202021206384F83D1084F820
:101380003E00206C40F02000206462B60120002165
:101390008AF8001005B0BDE8F08F00002DE9F04399
:1013A00083B0994616460F460446FFF78FFD94F822
:1013B0003D10202920D10546206800BF816989079A
:1013C00016D5FFF783FD411B20681A29F6D38169E2
:1013D0008907F3D500202021206384F83D1084F88C
:1013E0003E00216C41F02001216484F83C0003E0C0
:1013F00094F83C10012903D1022003B0BDE8F0832A
:10140000012284F83C200368DDE90B180A9ADB0707
:1014100003D1036843F001030360036823F400630E
:101420000360212084F83D00402084F83E00002025
:10143000206462626185608D394620850020CFF688
:10144000FF70E062204632464B46CDF800800195A1
:1014500001F050FA20B1012003B0BDE8F08300BFD5
:10146000208D98B9204641462A4601F0A7FA88B354
:10147000206C0428EFD12068016841F400710160FC
:10148000012003B0BDE8F0830004EBD020464146C4
:101490002A4601F095FC0028EAD1616A22680846D4
:1014A00010F8013B1361238D6062581E2085678D03
:1014B000013F678557697F07E6D50704E4D0487880
:1014C0001061881C6062981E2085618D01396185DC
:1014D000DAE700BF2068016841F400710160202054
:1014E00084F83D00002084F83E0084F83C0003B0FE
:1014F000BDE8F08310B586B045F200410068C4F243
:10150000000100228842049202D006B010BD00BF44
:1015100041F21804C4F20204206840F00800206080
:10152000206800F0080001900198C020029012206D
:1015300003900320059001F5384002A9FFF7B8FB9E
:10154000606840F400106060606800F40010019072
:10155000019806B010BD000040F2040040F6E041E2
:10156000C2F20000C2F2000100780A68104408606C
:101570007047000080B542F20000C4F2020001682A
:1015800041F010010160032000F08EF80F2000F000
:1015900005F800F027F8002080BD000070B540F28B
:1015A0000406C2F2000640F248013278C2F200019D
:1015B0004FF47A730968B3FBF2F20446B1FBF2F11F
:1015C000084601F03DF80F2C4FF0010508D838B956
:1015D0004FF0FF3021460022002500F039F87460FA
:1015E000284670BD82B041F21800C4F202000168C2
:1015F000022241F001010160016801F00101019145
:101600000199416841F080514160406800F080508C
:10161000009000980420C4F20100016862F31A618E
:10162000016002B070470000002848BF7047C1B297
:1016300000F01F00012202FA00F04EF20012CEF27A
:10164000000242EAD10121F0030108607047000066
:1016500010B54EF60C5CCEF2000CDCF80030C3F393
:10166000022E8EF00704042C28BF0424BEF10303CD
:101670004FF0FF3E0EFA04F438BF0023A143994017
:101680000EFA03F39A43114300F00F0200F1604396
:101690000901043A03F564436244002848BF02F19B
:1016A0000C03197010BD00004EF60C51CEF2000173
:1016B0000A684FF6FF031A4060F30A2242F0806086
:1016C00040F0FD700860704712B10020704700BF05
:1016D00001F0070200EB411C00EB4210090600F18B
:1016E00028004FF0000158BF0CF594700173C380BF
:1016F0000020704770470000D0F8683200EB4110BE
:10170000C26B184601F082BFD0F8683200EB41107E
:10171000D0F83C21184601F0D3BF000010B50446B4
:1017200048B2B0F1FF3F01F0070004EB401205DDC5
:1017300002F59471002382F8293104E0012302F1BB
:10174000280182F8293094F828220870012A04BF61
:10175000022010BD2068012284F8282202F07AFCC1
:10176000002084F8280210BDB0B50446406801F09E
:101770000F02824284BF0120B0BD48B2B0F1FF3FEA
:1017800001F0070004EB401206DD02F5947100231E
:1017900082F8293105E000BF012302F1280182F817
:1017A000293094F828220025012A8D70087004BF82
:1017B0000220B0BD2068012284F8282202F0E0FC5B
:1017C000284684F82852B0BD70B5064648B2B0F13C
:1017D000FF3F01F0070007DD06EB401404F59471AC
:1017E000002584F8295106E006EB401C01240CF189
:1017F00028018CF829404D780870002D0A61CB70C3
:1018000018BFC881022B04BF0020087196F8280277
:10181000012804BF022070BD3068012286F828220A
:1018200002F0FAFA002086F8280270BD10B501F027
:10183000070C00EB4C1E00680EF594710024CEF8E6
:101840003C21CEF84031CEF844418EF829418EF843
:1018500028C102F0EDFC002010BD0000B0B5044628
:10186000406801F00705854284BF0120B0BD48B241
:10187000B0F1FF3F08DD04EB411000F59471002248
:1018800080F8292107E000BF04EB4510012200F198
:10189000280180F8292094F82802012201288A7062
:1018A0000D7004BF0220B0BD206884F8282202F029
:1018B000A5FC1DB1002084F82802B0BD206804F505
:1018C0000C7102F05BFC002084F82802B0BD00001F
:1018D00080B501F0070C00EB4C1101F828CF01F1A5
:1018E000140E00684FF0000C8EE80C1001224A70B4
:1018F00002F09EFC002080BD2DE9F04F81B004462F
:10190000006802F0FBFD01462068090405D5B0F926
:101910004410B1F1FF3F40F3A98002F0EFFD400514
:1019200019D52068B0F8441021F48061A0F8441063
:10193000204600F0BDFA94F8280201280BD00120BF
:10194000002584F8280284F824502068002102F041
:101950002BFE84F82852206802F0D0FD0146206852
:10196000490405D5B0F8441021F48041A0F8441092
:1019700002F0C4FD01462068890405D5B0F8441082
:1019800021F40051A0F8441002F0B8FD014620688F
:10199000C90411D402F0B2FD000527D4206802F07A
:1019A000ADFD800548D4206802F0A8FDC00552D4E2
:1019B00001B0BDE8F08F00BFB0F8401021F0040185
:1019C000A0F84010B0F8401021F00801A0F8401035
:1019D000204600F07BFA2068B0F8441021F48051D2
:1019E000A0F8441002F08AFD0005D7D52068B0F8B1
:1019F000401041F00801A0F84010B0F8441021F464
:101A00000061A0F84410B0F8401041F00401A0F8C3
:101A1000401002F073FDC00406D52068B0F84410F1
:101A200021F48051A0F84410204600F08DFA20687F
:101A300002F064FD8005B6D52068B0F8441021F4AA
:101A40000071A0F84410204600F044FA206802F02B
:101A500055FDC005ACD52068B0F8441021F4807164
:101A6000A0F8441001B0BDE8F08F00BF04F50C7180
:101A700040F60F77009113E001F0070604EB4611E2
:101A800001F8286FC1E905320022CA6101224A70BB
:101A900002F0CEFB2068B0F9441000297FF53DAF7D
:101AA000B0F8442012F00F0B0CD030F92BA04FEA05
:101AB0004B08BAF1FF3F33DD1FFA8AF00006E9D583
:101AC00016E100BF0188D20652D4394001F5004129
:101AD0000180B0F8501094F8282001EBC20100EB0F
:101AE0004100B0F80404E16B6FF39F206064084488
:101AF000E06320460021FFF7FFFD94F82400002852
:101B0000C8D0206C0028C5D194F82400216840F08A
:101B10008000C0B2A1F84C00002084F82400B9E78E
:101B200030F8181004EB4B153940803120F81810AC
:101B300095F8341105F59479002975D099F80010BD
:101B400030F82120B0F85030520403EBC10100EB13
:101B5000410100F17F80B1F80C646FF39F26002EE5
:101B600000F08680D5F83C11B5F832217BE000BF4B
:101B70000A053DD409B2B1F1FF3F3FF78BAF0188B1
:101B8000394080310180B0F8501094F8282101EBE1
:101B9000C20100F20C4232F811306FF39F23C4F8F7
:101BA0004431A3B1D4F83C1189B1B4F82E2102F02C
:101BB000A9FCD4F83C01D4F844110844C4F83C0111
:101BC00020460021FFF7A0FD206800F20C42B0F88B
:101BD0005010D4F83831002B00F0AE803E2B00F2CC
:101BE000B78003F0010606EB53039B02BDE000BF84
:101BF000B0F8501094F8282101EBC20100EB41012C
:101C0000B1F80C34B4F82E2100996FF39F23C4F877
:101C1000443102F077FC206801883940803101802E
:101C2000204600F06FF935E7B0F8501099F8002021
:101C300001EBC20100EB4101B1F80C646FF39F2688
:101C4000002E77D0D5F83C11B5F82E21334602F09E
:101C500059FC19E0B1F804646FF39F2646B1D5F83A
:101C60003C11B5F83021334602F04CFC01E000BFD6
:101C70000026206899F8001048F2C00330F82120AF
:101C80003A401A4320F82120D5F84421D5E94F10D5
:101C90003244C5F844218A19C5F83C2118B1D5F859
:101CA0003811B1420AD999F800102046FFF72CFDEF
:101CB0001FFA8AF000067FF5EDAE19E099F80010E2
:101CC00001F0070304EB4316C6E94F200020C6F8D5
:101CD000440186F82901206806F5947186F82831B8
:101CE00002F0A6FA1FFA8AF000067FF5D3AE00BF15
:101CF000206804EB4B1630F81810394001F500410C
:101D000020F81810B0F8502096F8281002EBC10205
:101D100000EB4202B2F80434D6E90F526FF39F236E
:101D200073642B44002AF3637FF4A6AE2046FFF7CA
:101D3000E3FCAFE60026A7E78B5A48F2000623F43F
:101D4000F8438B528B5ACFF6FF7633430DE000BF3A
:101D50005E09DD064FF0FF3508BF05EB531648F26C
:101D60000003CFF6FF7343EA86238B52018843F6C4
:101D70000F72114048F2C00202F53F5251400180FB
:101D800088E60000F0B585B000285CD0044690F8E5
:101D9000290228B9002084F82802204600F064F8BF
:101DA000032084F82902206802F0DEF994E82F501D
:101DB000D4E907678DE82050CDE9036702F048F9C0
:101DC00000283DD120680021002502F0EBFB61686E
:101DD00031B301200023002204EB431787F82820A9
:101DE000D3B20132FB86D3B2994287F8290087F833
:101DF0002B50C7E90E553D64EED800200023002289
:101E000004EB431787F828210132D3B2994287F8AF
:101E1000290187F82B01C7E94E00C7F84001EFD828
:101E200004F10807D4E9056520688CCFD4E907CE12
:101E3000CDE9007602AE86E8205002F081F938B193
:101E4000022084F829020125284605B0F0BD00BF14
:101E50000025012084F8245084F82902206802F02B
:101E60006DF9284605B0F0BD80B582B0006845F632
:101E70000041C4F2000188421CBF02B080BD41F2A3
:101E80001C00C4F202000168002241F4000101605C
:101E90000068002100F40000019001981420FFF771
:101EA000D7FB142002B0BDE88040FFF7BDBB0000A7
:101EB00010B50446D0F86802012101F0F3FCD4F813
:101EC0006802BDE8104001F0B7BC0000D0F868021D
:101ED00001F0D2BCD0F8680201F0D6BC10B50446BF
:101EE00090F82802012804BF022010BD012084F8C8
:101EF000280284F82410206802F056FB002084F8A1
:101F0000280210BDD0F8682200F50C71104601F0CF
:101F1000DFBC000010B5044690F82802012804BF79
:101F2000022010BD012084F8280220460121FFF77D
:101F3000E1FB206802F000F9206802F0CFFA0020EF
:101F400084F8280210BD000010B50446D0F86802DD
:101F500001F014FDA069002808BF10BD4EF6105016
:101F6000CEF20000016841F00601016010BD0000E2
:101F70002DE9F04182B00446007841F21C06C0070A
:101F8000C4F202064AD0306810F0805808D1306898
:101F900040F080503060306800F08050019001982F
:101FA00047F20007C4F200073868C00512D4386849
:101FB00040F480703860FEF789FF05463868C00538
:101FC00008D4FEF783FF401B6428F7D9032002B032
:101FD000BDE8F081706810F4407012D0616801F4BF
:101FE000407188420DD0706840F24042C4F24222F3
:101FF000012320F4407113600023C0071360716057
:102000002AD17068616820F440700843B8F1000F6D
:10201000706003D1306820F0805030602068810704
:1020200007D556F8181CA26821F44041114346F820
:10203000181CC00604D4002002B0BDE8F08100BF27
:1020400056F8180CE16820F48000084346F8180C94
:10205000002002B0BDE8F081FEF738FF054641F2EE
:10206000883700BF70688007CBD4FEF72FFF401B76
:10207000B8424FF00300F5D9EBE700002DE9F0433B
:1020800081B0002800F0858042F20008C4F2020806
:102090000446D8F800000D4600F0070088420CD234
:1020A000D8F8000020F007002843C8F80000D8F84E
:1020B000000000F00700A8426BD1206841F204093B
:1020C0008107C4F2020917D5410705D5D9F80010D8
:1020D00041F4E061C9F80010010705D5D9F80010F6
:1020E00041F46051C9F80010D9F80010A26821F03D
:1020F000F0011143C9F80010C00741D1D8F8000021
:1021000000F00700A8420CD9D8F8000020F0070022
:102110002843C8F80000D8F8000000F00700A842E3
:1021200037D12068410707D5D9F80010E26821F4BB
:10213000E0611143C9F80010000708D5D9F8000084
:10214000216920F4605040EAC100C9F80000D9F8C4
:10215000002002F00C00082841F20020C0F27A00B2
:1021600050D146F6C243C2F38341C0F60003595C26
:10217000D2033BD440F60010C0F23D00484341E09A
:10218000606802280AD001282AD159F8041C890362
:1021900008D4012001B0BDE8F08300BF59F8041C49
:1021A0008901F6D5D9F8001021F003010843C9F8D8
:1021B0000000FEF78BFE064641F28837D9F8000092
:1021C000616800F00C00B0EB810F97D0FEF77EFE47
:1021D000801BB842F2D9032001B0BDE8F08300BFF4
:1021E00059F8041C8907D4D5DCE700BFD9F80020D2
:1021F00046F6C043C2F34042C0F600039A5C48432F
:10220000B0FBF2F0D9F8001046F6A842C1F3031172
:10221000C0F60002515C40F2480220FA01F140F29F
:102220000800C2F200000068C2F200021160FFF76D
:10223000B5F9002001B0BDE8F083000040F248008D
:1022400041F20401C2F20000C4F202010068096810
:1022500046F6B842C1F30221C0F60002515CC84004
:102260007047000040F2480041F20401C2F2000051
:10227000C4F202010068096846F6B842C1F3C221FF
:10228000C0F60002515CC840704700002DE9F041E3
:1022900082B0002868D00446007841F20006C007EA
:1022A000C4F2020625D0706800F00C0004281BD090
:1022B000706800F00C00082802D17068C00313D4C5
:1022C0006068002800F06881B0F5A02F00F07C81E4
:1022D000B0F5803F00F07C81306820F480303060C1
:1022E000306820F4802076E13068800301D5606892
:1022F000D0B32078800718D5706810F00C0F07D085
:10230000706800F00C0008286ED17068C0036BD4B0
:102310003068800702D52069012825D130686169BD
:1023200020F0F80040EAC1003060207800071FD498
:102330002078400732D4E56995B1706800F00C0050
:10234000082840F08F80012D0ED07068216A00F4BB
:1023500080328A4208D1616A00F47010884203D149
:10236000002002B0BDE8F081012002B0BDE8F0819C
:10237000A069002862D00020C4F242200121C0F8E8
:102380008014FEF7A3FD0546706A800700F18C807B
:10239000FEF79CFD401B0228F6D92AE1F06910F0F7
:1023A000805808D1F06940F08050F061F06900F089
:1023B00080500090009847F20007C4F20007386888
:1023C000C00529D4386840F480703860FEF77EFD7F
:1023D000054600BF3868C0051ED4FEF777FD401BD8
:1023E0006428F7D905E100BF2069002840F2000009
:1023F000C4F2422000F0828001210160FEF766FDF8
:10240000054600BF306880073FF588AFFEF75EFDE8
:10241000401B0228F6D9ECE0E068002800F080803C
:10242000052800F09780012800F09880306A20F09D
:1024300001003062306A20F0040092E00020C4F213
:1024400042200021C0F88014FEF740FD054600BF81
:10245000706A80077FF56CAFFEF738FD401B0228DD
:10246000F6D9C6E00027C4F2422700203866FEF7FE
:102470002DFD022D05460BD13068800140F1BE8054
:10248000FEF724FD401B02284FF00300F4D968E753
:10249000306880017FF564AFFEF718FD401B02280D
:1024A0004FF00300F4D95CE740F24800C2F20000AC
:1024B000006844F6D351C1F26201A0FB0101480A51
:1024C000019000BF00BF0198411E002801913FF418
:1024D0002FAF00BF0198411E002801913FF428AFA3
:1024E00000BF0198411E002801913FF421AF00BFB9
:1024F0000198411E00280191E4D119E700210160F3
:10250000FEF7E4FC054600BF306880077FF50DAF9D
:10251000FEF7DCFC401B02284FF00300F4D920E753
:10252000306A20F001003062306A20F0040030622E
:10253000FEF7CCFC054641F2883700BF306A8007C1
:1025400020D5FEF7C3FC401BB8424FF00300F5D97D
:1025500007E700BF306A40F004003062306A40F0A4
:1025600001003062FEF7B2FC054641F2883700BF39
:10257000306A800706D4FEF7A9FC401BB842F7D9A1
:1025800037E000BFB8F1000F7FF4D5AEF06920F05E
:102590008050F061CFE600BF306820F480303060BA
:1025A000306820F480203060FEF790FC054600BFC4
:1025B000306880037FF59DAEFEF788FC401B6428E1
:1025C0004FF00300F4D9CCE6306840F4802030604E
:1025D000306840F480303060FEF778FC054600BF7C
:1025E000306880033FF585AEFEF770FC401B642821
:1025F000F6D9032002B0BDE8F08100BF206AB0F533
:10260000803F05D17168A26821F4003111437160E7
:102610007168626A21F474111143084370600120EB
:102620003866FEF753FC0446306880013FF598AEEB
:10263000FEF74CFC001B02284FF00300F4D990E693
:10264000411E0020B0EB116F1CBF012070474EF2FD
:102650001002CEF2000251604EF62351CEF200017C
:10266000F0230B700721906011607047002804BFB1
:102670000120704710B5044690F8410028B90020A9
:1026800084F84000204600F063F8242084F84100DC
:102690002068D4E90212C36823F40053C3600369BD
:1026A00023F440531A430261D4E904231143C2685E
:1026B000194341F20C639A431143C1604169A26915
:1026C00021F44071114343F60002C4F2010290422A
:1026D000416103D0FFF7B2FD02E000BFFFF7C2FD8A
:1026E0006268192148439100B0FBF1F048F21F5194
:1026F000C5F2EB11A0FB01235A094FF69C73C0F6FB
:10270000FF7302FB0300322303EB0010A0FB010167
:10271000F02303EA5113206803EB0212C1F34311C3
:1027200011448160016921F490410161416921F006
:102730002A014161C16841F40051C160002020219B
:10274000606484F8411084F84210606310BD00009A
:1027500070B586B040F60004C4F201040068A4F528
:10276000444100268842049602D006B070BD00BFE6
:1027700041F21800C4F20200416802AD41F4003198
:102780004160416801F4003101910199016841F013
:10279000040101600068294600F0040001900198DE
:1027A0000420029002200390032005902046FEF7AB
:1027B0007FFA0820CDE90206204629460496FEF756
:1027C00077FA262000210022FEF742FF2620FEF79E
:1027D0002BFF06B070BD0000FEE700002DE9F047BA
:1027E00082B0044600680E460168DDF828A041F476
:1027F000806101600168DDF82C9041F480711D4614
:102800001746016020464FF0011100225346CDF8D3
:10281000009000F033F958B120680068C00544BF4B
:102820004FF400702064032002B0BDE8F08700BFC1
:1028300040F202082068C0F2010806F0FE060661B8
:102840002046414652464B4600F002FA20B1012094
:1028500002B0BDE8F08700BF0020019020684A4622
:10286000416901918069514601900198204600F02C
:10287000A7FA98B92068012D08D0390A01612046CD
:1028800051464A4600F09CFA40B92068F9B201610D
:10289000204651464A4600F093FA58B1206C04286D
:1028A000D5D12068016841F400710160012002B0B7
:1028B000BDE8F087206800220168534641F480712A
:1028C000016020464FF00111CDF8009000F0D6F8DD
:1028D0000028A1D1206846F001010161204641464F
:1028E00052464B4600F0B4F9002818BF012002B050
:1028F000BDE8F0872DE9F04383B0044600680D463B
:1029000001680A9F0B9E41F48071994690460160D0
:1029100020464FF0011100223B46009600F0AEF831
:1029200050B120680068C00544BF4FF400702064B7
:10293000032003B0BDE8F083206805F0FE010161CB
:102940000221C0F2010120463A46334600F080F9E8
:1029500020B1012003B0BDE8F08300BF0020029049
:102960002068324641690291806939460290029896
:10297000204600F025FA58B1206C0428E9D12068DF
:10298000016841F400710160012003B0BDE8F083EB
:102990002068B9F1010F0AD04FEA182101612046E1
:1029A0003946324600F00CFA0028E5D120685FFA7B
:1029B00088F10161002003B0BDE8F08370B50368C1
:1029C000044653F8140F400711D40E46481C29D072
:1029D00086BB00BF1868400527D4FEF777FA236846
:1029E00053F8140F400739D518684007F2D5002076
:1029F00070BD00BF18684007F9D41868400514D4AA
:102A000018684007F3D4186840050ED418684007CA
:102A1000EDD41868400508D4186840074FF000004E
:102A200048BF70BD18684005E4D56FF48060186039
:102A3000042014E0154603E053F8140F4007D6D4E1
:102A400018684005F1D4FEF741FA401B2368B042F4
:102A5000F2D958694007EFD4202000E0202000215F
:102A60002022216384F83D2084F83E10226C10431C
:102A70002064012084F83C1070BD00002DE9F04175
:102A8000054600681E46144601F47F0201338FB2EA
:102A900042D0DDF81880B2F5803F40F08780406971
:102AA0003840C01BB0FA80F04009A04240F0C88016
:102AB0004EB924E040693840C01BB0FA80F04009AC
:102AC000A04240F0BD80FEF701FAA0EB08012868A3
:102AD000B142EFD941693940C91BB1FA81F14909C5
:102AE000A142E7D19BE000BF40693840C01BB0FA6B
:102AF00080F04009A0424FF0000040F0A680FEF7B1
:102B0000E5F9286841693940C91BB1FA81F14909E1
:102B1000A142E9D183E000BFB2F5803F24D100BFDC
:102B200041693940C91BB1FA81F14909A14240F01C
:102B3000878041693940C91BB1FA81F14909A14235
:102B400040F07E8041693940C91BB1FA81F14909E1
:102B5000A14275D141693940C91BB1FA81F14909D6
:102B6000A142DDD06CE000BF81693940C91BB1FAD8
:102B700081F14909A14263D181693940C91BB1FA88
:102B800081F14909A1425BD181693940C91BB1FA80
:102B900081F14909A14253D181693940C91BB1FA78
:102BA00081F14909A142DFD04AE000BF8069384085
:102BB000C01BB0FA80F04009A04241D146B923E0E1
:102BC00080693840C01BB0FA80F04009A0423BD178
:102BD000FEF77CF9A0EB08012868B142F0D98169C1
:102BE0003940C91BB1FA81F14909A142E8D116E087
:102BF00080693840C01BB0FA80F04009A0424FF015
:102C0000000018BFBDE8F081FEF760F9286881690F
:102C10003940C91BB1FA81F14909A142E8D100202C
:102C20002021286385F83D1085F83E00296C41F08D
:102C30002001296485F83C000120BDE8F08100BF37
:102C40000020BDE8F08100BF0020BDE8F081000059
:102C5000F0B581B0044600681D4643698FB203EAAF
:102C60000701B94202D1002001B0F0BD416916460A
:102C7000013201F4806125D0002940D1CEB100BFDE
:102C8000FEF724F9411B2068B14203D9416939405C
:102C9000B9424BD141693940B942E4D04169490553
:102CA000EED52CE041693940B942DCD04169490593
:102CB00025D4FEF70BF9206841693940B942F1D0BB
:102CC000202024E0D9B941693940B942CBD04169CB
:102CD000490514D441693940B942C4D04169490514
:102CE0000DD441693940B942BDD04169490506D486
:102CF00041693940B942B6D041694905E3D5016817
:102D000041F4007101606FF4806141610420002191
:102D10002022216384F83D2084F83E10226C104369
:102D2000206484F83C10012001B0F0BD2020EEE7C3
:102D300070B504460068154650F8143F5A063DD455
:102D40000E4629B926E000BF50F8141F490635D4B5
:102D50000168C90621D4FEF7B9F8411B2068B142C9
:102D6000F2D941694906EFD400202021206384F87C
:102D70003D1084F83E00206C40F0200018E000BFB9
:102D8000FEF7A4F8206850F8141F4906ECD5016836
:102D9000490613D40168C906F2D56FF0100101602D
:102DA00000202021206384F83D1084F83E00206C30
:102DB0002064002084F83C00012070BD002070BD1C
:102DC00070B50368044653F8140F000611D40E467C
:102DD000481C29D086BB00BF1868400527D4FEF7E1
:102DE00075F8236853F8140F000639D518680006E3
:102DF000F2D5002070BD00BF18680006F9D418682D
:102E0000400514D418680006F3D4186840050ED4A1
:102E100018680006EDD41868400508D41868000644
:102E20004FF0000048BF70BD18684005E4D56FF44E
:102E300080601860042014E0154603E053F8140F76
:102E40000006D6D418684005F1D4FEF73FF8401BC1
:102E50002368B042F2D958690006EFD4202000E080
:102E6000202000212022216384F83D2084F83E1098
:102E7000226C10432064012084F83C1070BD0000D7
:102E80002DE9F04184B001260DF10F00CDE90006D7
:102E900040F288504FF47A75C2F20000D0217522BA
:102EA00001230295FEF7D4F89DF80F00682834D16D
:102EB00040F28854C2F200044FF000080DF10E07F2
:102EC0002046D0216B2201238DF80E80CDE90076BB
:102ED0000295FEF763FA07208DF80E002046D021F8
:102EE00019220123CDE900760295FEF757FA204614
:102EF000D0211C2201238DF80E80CDE900760295A9
:102F0000FEF74CFA2046D0211B2201238DF80E80BB
:102F1000CDE900760295FEF741FA04B0BDE8F081F4
:102F2000F0B585B006200DF10E01CDE9001040F29C
:102F300088504FF47A77C2F20000D0213B2201235F
:102F40000297FEF785F8BDF80E0040F26C1501BA45
:102F5000BDF81070090CC2F20005298039BABDF81D
:102F60001260090C698031BA090CC0BAA980FDF75A
:102F700075FA0024C3F6107400222346FDF78DF97C
:102F8000FDF790FA2861F8BAFDF768FA00222346A7
:102F9000FDF783F9FDF786FA6861F0BAFDF75EFA8E
:102FA00000222346FDF779F9FDF77CFAA86105B008
:102FB000F0BD0000F0B585B006200DF10E01CDE9A1
:102FC000001040F288504FF47A77C2F20000D0210E
:102FD000432201230297FEF73BF8BDF80E0040F2B2
:102FE0006C1501BABDF81070090CC2F20005E98039
:102FF00039BABDF81260090C298131BA090CC0BA7E
:103000006981FDF72BFA46F20004C4F26004002245
:103010002346FDF7B4F9FDF745FAE861F8BAFDF784
:103020001DFA00222346FDF7AAF9FDF73BFA2862B4
:10303000F0BAFDF713FA00222346FDF7A0F9FDF7D9
:1030400031FA686205B0F0BD10B540F26434C2F2E6
:10305000000440F22801C2F200012046002200F0E4
:1030600099FA40F24C01C2F20001204600F0AEFC99
:1030700040F2CC01C2F20001204600F0B5F8204633
:10308000BDE8104000F0B8BCFEE70000FEE700001D
:103090007047000040F2601040F6D001C2F200001C
:1030A000C2F20001416040F6480140F6D822C2F267
:1030B0000001C2F2000209688260486940F0010024
:1030C0004861C86840F02000C86070477047000041
:1030D00040F26010C2F20000018800291CBF0139D3
:1030E0000180FEF739BA00007047000040F6480042
:1030F000C2F2000001F060BAD0F8181200220020DD
:1031000081F8542070470000B0B50446D0F81C0286
:10311000D4F81852C268287869789047204601216F
:103120002A46412300F076FB0020B0BD10B5812176
:10313000044600F059FA2046012100F055FAD4F86F
:10314000180250B1D4F81C0280688047D4F81802E5
:1031500000F05AFE0020C4F81802002010BD000044
:1031600010B5D0F81842216D012907D1D0F81C0202
:103170006178C2682078904700202065002010BD4B
:10318000014640F288002922C2F200000A807047FE
:10319000014640F2C0000A22C2F200000A807047D5
:1031A00070B5812103224023044600F01FFB204616
:1031B000012103224023012500F018FB582000F0D4
:1031C00025FEC4F8180268B10646D4F81C02002592
:1031D000406886F8545080472046012132464123FA
:1031E00000F018FB284670BD00290EBF0220C0F871
:1031F0001C1200207047000080B590F8FC31032BB2
:1032000006D194460A46D0F8181291F854300BB102
:10321000002080BD012381F854308121634600F0F5
:10322000B7FB002080BD000080B50A78D0F818C236
:1032300012F0600214D0202A2DD14A78023A092ACD
:103240003CD8DFE802F005333B3B3B3B3B3F494F7B
:103250000CF14801012200F09BF8002080BD00BF66
:103260004A780B2A14D00A2A18D0062A13D1CA7811
:10327000212A3DD0222A47D1CA88D0F81C121C2A04
:10328000096828BF1C2200F083F8002080BD00BF21
:103290008878CCF84C00002080BD00BF0CF14C01B8
:1032A000012200F075F8002080BD00BF0CF1440140
:1032B000012200F06DF8002080BD00BF00F042F850
:1032C000022080BD8A7901236146CCF8503000F09D
:1032D00045F8002080BD00BFC878CCF84800002029
:1032E00080BD00BF8878CCF84400002080BD00BFBE
:1032F000CA8840F2B401C2F20001092A28BF09229B
:1033000000F046F8002080BD0022002100F040F8C7
:10331000002080BD80B5D0F814225268904700206C
:1033200080BD000080B513460A46002100F072FA05
:10333000002080BD80B513460A46002100F028FB1E
:10334000002080BD10B58021044600F0F3FA20462D
:103350000021BDE8104000F0EDBA000080B5134632
:103360000A460321C0F8F4110021C0E9423300F0FD
:1033700051FA002080BD000080B50521C0F8F4118D
:1033800000210022002300F045FA002080BD00004B
:1033900080B513460A460221C0F8F4110021C0E9A5
:1033A000063300F0F5FA002080BD000080B504214E
:1033B000C0F8F41100210022002300F0E9FA0020F7
:1033C00080BD000010B540F26024C2F200040A463D
:1033D00002A0214600F070F8204610BD43757374BA
:1033E0006F6D2048494420436F6E66696700000096
:1033F00040F2DC001222C2F200000A807047000096
:1034000010B540F26024C2F200040A4602A0214630
:1034100000F052F8204610BD437573746F6D20485C
:10342000494420496E74657266616365000000005E
:1034300040F2F0000422C2F200000A80704700004F
:1034400010B540F26024C2F200040A4602A02146F0
:1034500000F032F8204610BD53544D6963726F6519
:103460006C656374726F6E696373000010B540F22F
:103470006024C2F200040A4602A0214600F01CF8B3
:10348000204610BD5553422053544D3332000000A6
:1034900010B540F26024C2F200040A4602A02146A0
:1034A00000F00AF8204610BD303030303030303077
:1034B000303031410000000010B5002868D003789A
:1034C000B3B100F1020E4FF0000C00BF1EF8013C3A
:1034D00093B19EF800309BB19EF80130A3B19EF8E5
:1034E00002300CF1040C002B0EF1040EEED10DE0B5
:1034F0004FF0000C0AE000BF4CF0010C06E000BFEA
:103500004CF0020C02E000BF4CF0030C5FFA8CFCA4
:10351000022303EB4C03138003220B704A7090F8D4
:1035200000E0BEF1000F33D0023002224FF0000C59
:103530001AE000BF141DE4B244F0010E0B5501F86F
:103540000EC04378002B08BF10BD941DE4B244F0B8
:10355000010E0B5501F80EC090F802E00832BEF1E2
:10356000000F00F1040013D0D3B243F0010401F8BE
:1035700003E001F804C010F8013C4BB1941CE4B224
:1035800044F0010E0B5501F80EC00378002BD1D189
:1035900010BD0000002804BF0220704780B5D0F89D
:1035A0001432002B1CBF0023C0F81432002918BFAE
:1035B000C0F81012012180F8FC11027000F0B6F87A
:1035C000002080BD80B5D0F82002FEF7CDF840F293
:1035D00000220223C100C0F20122042838BF22FACF
:1035E00001F3D8B280BD000080B5D0F82002FEF70C
:1035F00095F840F200220223C100C0F20122042803
:1036000038BF22FA01F3D8B280BD0000B0B504463D
:1036100061B1D4F814024269002A4ED094F8FC013A
:1036200003284AD12046904747E000BFD4F8F40170
:10363000022827D1D4E90710814209D9081A83B298
:10364000E061204611461A46FFF774FE14E000BF01
:10365000A169814220D3B1FBF0F202FB1010D8B96E
:10366000D4F8F801814217D220460021002200251B
:10367000FFF760FEC4F8F851204600210022002325
:1036800000F0C8F894F80002012816D1002084F850
:1036900000020020B0BD00BFD4F81402C16829B1F7
:1036A00094F8FC01032801D1204688472046FFF703
:1036B00063FE94F800020128E8D00020B0BD0000AD
:1036C00010B5044661B1D4F8140282692AB194F8A5
:1036D000FC01032801D120469047002010BD00BF07
:1036E000D4F8F4010328F8D1D4E9431081420DD96C
:1036F000091AC4F80C11814238BF084683B220462B
:1037000011461A46FFF70EFE002010BDD4F8140231
:10371000016929B194F8FC01032801D120468847AA
:103720002046FFF743FE002010BD000010B5044600
:1037300040F2DC5045F60041C2F20000C4F2000144
:10374000082202234FF0030C80E80E100021C0F87D
:103750006842C4F82002C0E906110162FEF712FBBC
:1037600020B111A04FF49771FDF788FAD4F8200228
:10377000002100221823FDF7A7FFD4F820028021A2
:1037800000225823FDF7A0FFD4F820028121002257
:103790009823FDF799FFD4F8200201210022D823B5
:1037A000FDF792FF002010BD2E2E2F5553425F448F
:1037B00045564943452F5461726765742F7573628E
:1037C000645F636F6E662E6300000000D0F8200215
:1037D0004AB201F07F0100EB411000F59571002A1B
:1037E00048BF00F12A0108787047000080B5944670
:1037F000D0F820021A466346FDF7E6FF40F20022A9
:103800000223C100C0F20122042838BF22FA01F3CA
:10381000D8B280BD80B5D0F82002FEF707F840F29C
:1038200000220223C100C0F20122042838BF22FA7C
:1038300001F3D8B280BD0000B0B5002100224023C2
:1038400004464025FFF7D2FF204680210022402376
:10385000C4F81051FFF7CAFFD4F8180201212562FD
:1038600084F8FC1128B1D4F814022179426820466A
:1038700090470020B0BD000090F8FD2101460020D7
:1038800081F8FC217047000080B590F8FC110329F5
:1038900005D1D0F81412C969002918BF8847002043
:1038A00080BD0000024600201174704780B5D0F83A
:1038B0002002FEF713FB40F200220223C100C0F2F7
:1038C0000122042838BF22FA01F3D8B280BD0000DB
:1038D000B0B500F502750446284600F06BF894F880
:1038E00008020121B4F80E22C4F8F41100F01F01FF
:1038F0000229C4F8F82109D001290DD091B9204638
:10390000294600F07FF80020B0BD00BF20462946C0
:1039100000F0C4F90020B0BD2046294600F046FA68
:103920000020B0BD00F08001204600F003F8002028
:10393000B0BD000080B5D0F82002FDF78FFF40F247
:1039400000220223C100C0F20122042838BF22FA5B
:1039500001F3D8B280BD000080B5D0F82002FEF798
:10396000D9FA40F200220223C100C0F20122042849
:1039700038BF22FA01F3D8B280BD0000014690F8AA
:10398000FC01042281F8FD01002081F8FC21704730
:1039900080B5D0F82002FDF79BFF40F20022022301
:1039A000C100C0F20122042838BF22FA01F3D8B2C4
:1039B00080BD00000A7802704A7842704A884280CE
:1039C0008A888280C988C1807047000000290EBFA4
:1039D0000220C0F8141200207047000080B5D0F813
:1039E00014223AB112689047002818BF0120400005
:1039F00080BD00BF022080BD80B5FFF7ADFF002075
:103A000080BD0000B0B582B00D4649780446092952
:103A100000F2F480DFE811F00A002000F20030002C
:103A2000F20044009400F2006600760094F8FC0175
:103A300000F0FE00022840F0E180D4F804020322E6
:103A4000002808BF0122214641F80C2F20460222FF
:103A5000FFF79EFC02E100BF94F8FC0100F0FE00BD
:103A6000022840F0CB806888012840F0F780D4F825
:103A70001402002107E000BF6888012840F0EE80B2
:103A8000D4F8140201218268C4F8041220462946A1
:103A900090472046FFF78AFC002002B0B0BD00BF6F
:103AA000A888002840F0AA80E888002840F0A68076
:103AB00094F8FC01032800F0A180A87800F07F05AD
:103AC0002046294684F8FE51FFF7F0FE2046FFF716
:103AD0006DFC002D0CBF0120022084F8FC010020A9
:103AE00002B0B0BDE888012840F0888094F8FC015D
:103AF000032841D0022840F081800020214641F86F
:103B0000080F3AE0688840F25C25C1B2C2F20005B5
:103B10000229287080F0728094F8FC01032833D0C9
:103B2000022840F06B800029B3D0032084F8FC0108
:103B300020466160FFF752FF0228AAD15EE000BF75
:103B400068884FF0FF3101EB1021062956D8DFE8D5
:103B500001F0053B2F555549530000BFD4F8100222
:103B60000268207C0DF1060190470146BDF8060071
:103B7000002865D172E000BF211D20460122FFF719
:103B800007FC002002B0B0BD002943D060680128C6
:103B90003FF47FAFC1B22046FFF7BCFB2978204637
:103BA0006160FFF71BFF02287FF473AF26E000BFC0
:103BB000C1B2052956D8DFE801F0035D6165696D82
:103BC000D4F810024268CCE7217CD4F81402002912
:103BD0000CBF816AC16A0DF10600884701460220C8
:103BE0002AE000BF207C48B9D4F81402416B0DF1E3
:103BF00006008847B9E700BF207CA8B12046802195
:103C0000FFF798FE20460021FFF794FE002002B047
:103C1000B0BD00BF022084F8FC0100206060204697
:103C2000FFF778FB35E700BFD4F81402016B0DF104
:103C300006008847014607204870BDF8060068B1B5
:103C4000EA885AB1904238BF02462046ADF80620B5
:103C5000FFF79EFB002002B0B0BD00BF002002B005
:103C6000B0BD00BFD4F814020DF10602836B2046EC
:103C700098477AE7D4F81002826872E7D4F8100205
:103C8000C2686EE7D4F8100202696AE7D4F810023D
:103C9000426966E7D4F81002826962E7B0B50D4662
:103CA0000978044601F06001202907D1D4F81402F4
:103CB00029468268204690470020B0BD6978A888D0
:103CC000E1B101292AD003295CD194F8FC11032920
:103CD00028D1698831B910F07F0103D0C1B22046E4
:103CE000FFF728FED4F81402294682682046904740
:103CF0002046FFF75BFB0020B0BD00BF94F8FC112D
:103D0000032923D002290FD020468021FFF712FE7D
:103D100020460021FFF70EFE34E000BF94F8FC11AE
:103D200003292DD0022907D141062BD0C1B220464C
:103D3000FFF700FE0020B0BD20468021FFF7FAFD0E
:103D400020460021FFF7F6FD0020B0BD00F07F0106
:103D500004EB011101F11405020658BF01F582754B
:103D6000C1B22046FFF732FD002818BF01202860AD
:103D7000204629460222FFF70BFB0020B0BD00BF02
:103D8000698809B10020B0BD4106B1D0C1B220465A
:103D9000FFF718FCD4F814022946826820469047A1
:103DA0002046FFF703FB0020B0BD0000B0B504467D
:103DB00090F8FC0103280FD188880D4610F0FE0F03
:103DC00014D020468021FFF7B5FD20460021FFF7E3
:103DD000B1FD0020B0BD00BF20468021FFF7AAFD45
:103DE00020460021FFF7A6FD0020B0BDD4F8140244
:103DF0002946826820469047E8880028F4D120466A
:103E0000FFF7D4FA0020B0BD7047000040F28020D8
:103E1000C2F2000070470000F0B50C78024691F83D
:103E200003E000EB840730F8240047F27063BEF132
:103E3000030F20EA030309D80020DFE80EF003098E
:103E4000100D00BF43F4007308E000BF012006E03E
:103E500043F4806302E000BF43F4C063002048F2F3
:103E60008006CFF6FF7633433B803B8840F60F75E4
:103E70002B40234333433B800B7B48F2800C002BC9
:103E80004CD03B8840F60F652B400CF580752B43DA
:103E90003B80B2F850300D8902EB0414234425F026
:103EA0000105A3F80054B2F850204B89224423F0B6
:103EB0000103A2F8083449783A88002902F48041C5
:103EC00052D039B1398840F60F7211400CF580425A
:103ED000114339803988490607D5398840F60F7271
:103EE00011400CF1400211433980398840F60F72BD
:103EF00011400CF5804211433980398840F63F72F9
:103F000011400CF120024A40BEF1010F08BF41EA06
:103F10000C023A80398843F60F724CE04D78B2F8C3
:103F200050302601CC88002D24F0010448D091198E
:103F30001944A1F800443988490607D5398840F664
:103F40000F7211400CF1400211433980398840F65C
:103F50003F72BEF1010F01EA02012DD00CF12002E7
:103F600051403980F0BD00BF39B1398840F60F7239
:103F700011400CF58042114339803988490607D534
:103F8000398840F60F7211400CF14002114339801C
:103F9000398840F60F7211400CF14002114339800C
:103FA000398843F60F7211400CF540525140398068
:103FB000398840F63F72114041EA0C013980F0BD6A
:103FC00016443344A3F80844B2F850200B6906F2B3
:103FD0000C415BB13E2B19D803F0010606EB5303ED
:103FE0009B0253523988490429D520E0535A48F29C
:103FF000000623F4F8435352535ACFF6FF76334367
:104000005352398849041AD511E000BF5E094FF0B8
:10401000FF35DC0608BF05EB531648F20003CFF668
:10402000FF7343EA862353523988490407D53988F8
:1040300040F60F7211400CF58042114339803988E7
:1040400043F60F7211400CF5405251403980F0BDDB
:1040500000207047B0B50C784B78097B024630F8E9
:1040600024004CF2800C4CF2800500294FEA4401F8
:104070003AD0002B00F4804040D040B132F811001B
:1040800040F60F73184040EA0C0022F8110032F895
:10409000110043F60F7E400640F63F7009D532F816
:1040A000113040F60F742340ACF57F54234322F8BF
:1040B000113032F8113040F60F7423402B43ACF529
:1040C000804522F8113032F811301840284322F888
:1040D000110032F81100ACF5804300EA0E000343F2
:1040E000002022F81130B0BDF3B1400640F63F7E0B
:1040F000EFD5ACF57F5540F60F70E4E740B132F8EC
:10410000110040F60F73184040EA0C0022F811002D
:1041100032F81100ACF57F55400640F63F7E43F67D
:104120000F70BCD4C5E700BF400443F60F7ED0D566
:1041300040F60F70C7E7000000207047002070476E
:1041400001460120A1F840000020A1F84000A1F89C
:104150004400A1F85000B1F8400040F43F42002074
:10416000A1F84020704700000146B0F8400044F23A
:10417000FF0202400020A1F8402070470020704755
:1041800080B50A7B12B1002080BD00BF0A784B7851
:1041900030F822C04FEA4202B3B15FEA4C6348F202
:1041A000A00E0BD530F812C040F60F730CEA030CCA
:1041B0000EF1200343EA0C0320F81230C9780129DC
:1041C000E1D040F63F7110E05FEA4C414BF2800EC7
:1041D00009D530F8121040F60F7319400EF58053D0
:1041E000194320F8121043F60F7130F812301940BD
:1041F00081EA0E0120F81210002080BD02460B78E3
:10420000487832F823C040F63F71002848F2900009
:1042100008BF43F60F71CFF6FF7008BF00F57F604F
:1042200001EA0C014140002022F8231070470000F1
:104230002DE9F04105468F6908694A780B7B3E1AE3
:104240003CBF00263846012A8E6139D1E3B30A7893
:1042500035F82270B5F850307F064FEA02172F4428
:104260003B4459BFA3F8040401F10804A3F80C046B
:1042700001F10A0480B200284FEA420300F0E68010
:104280002288D1F814C005EB420101304FF0FF3213
:1042900002EB500EC0F3410201F58061002A4FEAA3
:1042A000500000F0C080644634F8027B0E46012ABC
:1042B00026F8047B58D10138A4463146B3E000BF4C
:1042C00033B3BAB30978A1E0020400F0EF80CA88E2
:1042D000D1F814C005EB420202F5806E82B2531C85
:1042E0004FF0FF3202EB5308C3F34102002A4FEABA
:1042F000530300F0C880664636F8024B7746012A21
:1043000027F8044B62D1013BB446BE46BBE000BF78
:10431000B5F8502009782A440B0102F20C42C8B1CA
:104320003E282BD800F0010707EB5000800298527E
:104330006CE000BFB5F8502009782A440B0102F266
:10434000044248B33F284DD200F0010707EB50006C
:10435000800254E0985A20F4F8409852985A40F459
:104360000040985252E000BFBCF80240022A8C8004
:1043700052D108310CF1040C023854E047094FF0D7
:10438000FF36C40608BF06EB50174FF4004040EA62
:10439000872098523AE000BF985A20F4F84098528B
:1043A000985A40F400409852B5F8500028441844F8
:1043B000B0F80C2422F4F842A0F80C24B0F80C2435
:1043C00042F40042A0F80C2420E000BFBCF80240F8
:1043D000022AAEF804404DD10EF1080E0CF1040C87
:1043E000023B50E047094FF0FF36C40608BF06EB1A
:1043F000501748F20000CFF6FF7040EA872098522D
:10440000B5F850202A441A44A2F80C044BF2800458
:104410004B0043F60F7056E0BCF804200CF1060C7C
:104420000A810C310338BEF1030F0FD3ACF108043D
:10443000103900BF34F8082F043821F8102F628893
:104440008A80A2880A81E2888A81F3D135F8130034
:1044500040F60F7108404BF28001CFF6FF71084320
:1044600000F5805048F2B00425F8130040F63F7084
:1044700029E000BFBCF804200CF1060CAEF80820BF
:104480000EF10C0E033BB8F1030F0FD3ACF108048F
:10449000AEF1100234F8087F043B22F8107F6788E1
:1044A0009780A7881781E7889781F3D1B5F85020C6
:1044B00009782A4402EB011248F2B004A2F804047D
:1044C0004B0040F63F7035F81310084080EA0401B5
:1044D000002025F81310BDE8F08100000146B0F877
:1044E000400040F43F420020A1F840207047000007
:1044F00040F2DC50C2F20000FDF7FEB9B0F8440013
:104500007047000070B500EB4200022B00F580649C
:1045100041D34FF0FF32C3F34105580802EB530C6F
:1045200055B1224632F8046B8E46012D2EF8026BEF
:1045300008D1013817E000BF2246BCF1030F144632
:104540002AD315E0A288022D4A8005D101F1040E7C
:1045500004F10802023806E0228901F1060E8A8081
:1045600004F10C0203387146BCF1030F144613D357
:1045700032F8106B043821F8086B32F80C6C21F813
:10458000066C32F8086C21F8046C32F8046C21F8DF
:10459000026CEDD114468E46D8071CBF20888EF8D9
:1045A000000070BD00207047002904BF8021A0F8E2
:1045B0004C1000207047000000680268C168930634
:1045C00018D511F0200315D0016840F26011C2F235
:1045D000000140684968D1F80022D1F80432013264
:1045E0006FF35F229A4227D0D1F80032C854C1F845
:1045F0000022704712061FD511F0800108BF7047D6
:1046000040F6D821C2F20001D1F80022D1F80432DC
:104610009A4205D1C16821F08001C160704700BF96
:10462000D1F804228A5CD1F8043201336FF35F239E
:10463000C1F804320168426070470000FEE70000E4
:10464000B0B50446FBF76EFD40F2601EC2F2000EEC
:10465000DEF804204FF4FA7CAEF800C0D2F8003245
:10466000D2F80412591AC90516D1D2F80012D2F89C
:104670000432C91AC90501BFD2F80012D2F80432B7
:10468000C91A5FEAC15107D1D2F80012D2F8043238
:10469000C91AC905E2D000BFD2F80012D2F804321C
:1046A000994205D0D2F804122378515C994213D074
:1046B000D2F80412D2F8003299424FD0D2F8041244
:1046C00001316FF35F21C2F80412D2F80012D2F860
:1046D00004329942E6D1EBE7D2F80012D2F8043264
:1046E000994203D100238342B6D139E0002305E08B
:1046F000D2F80012D2F80452A942F4D0D2F804122F
:10470000E55C515CA942EED1D2F8041201330131CB
:104710006FF35F218342C2F8041221D0AEF800C0CB
:10472000D2F80012D2F80452491BC905E0D1D2F8E0
:104730000012D2F80452491BC90501BFD2F8001279
:10474000D2F80452491B5FEAC151D1D1D2F800120C
:10475000D2F80452491BC905E2D0C9E70020B0BD18
:104760000120B0BD2DE9F04F85B040F244188346DA
:10477000C2F200080020C8F800009BF800200C4698
:104780002C2A20D0022000BF421EC8F800200BEBCC
:10479000000111F8013C2C2B14D0C8F800001BF8C4
:1047A00000202C2A0FD0421CC8F800204B782C2B5C
:1047B00008D0821CC8F80020897804302C29E3D165
:1047C000023800E01046411E881CC8F800000BEBC0
:1047D000010293782C2B13D0CB1CC8F80030D7786B
:1047E0002C2F10D0081DC8F8000017792C2F09D0E5
:1047F0000531C8F8001051792C290146E4D102E0B6
:10480000481C00E0184600215A4600BF4718BB1C50
:10481000C8F800301618B5782C2D16D0FB1CC8F837
:104820000030F5782C2D10D03B1DC8F800303579BC
:104830002C2D0AD07B1DC8F80030737904322C2B44
:1048400001F10401E2D10844431C591E881CC8F838
:1048500000000BEB010293782C2B13D0CB1CC8F873
:104860000030D7782C2F10D0081DC8F80000177919
:104870002C2F09D00531C8F8001051792C29014698
:10488000E4D102E0481C00E0184600215A4600BF6F
:104890004718BB1CC8F800301618B5782C2D16D058
:1048A000FB1CC8F80030F5782C2D10D03B1DC8F843
:1048B000003035792C2D0AD07B1DC8F80030737973
:1048C00004322C2B01F10401E2D10844431C591E8F
:1048D000881CC8F800000BEB010293782C2B13D036
:1048E000CB1CC8F80030D7782C2F10D0081DC8F882
:1048F000000017792C2F09D00531C8F80010517924
:104900002C290146E4D102E0481C00E018460230A0
:10491000C8F800001BF80000A0F1310105292BD8D0
:10492000012000FA01F111F0230F25D04FF000090A
:104930000194E061C8F800901BF809002C2809F1E7
:10494000010021D0C8F800000BEB090041782C29A8
:1049500009F102010ED0C8F8001081782C2909F164
:10496000030107D0C8F80010C07809F104092C2809
:10497000E0D10AE0894608E00020E06101252846F0
:1049800005B0BDE8F08F00BF8146C8F800901BF865
:10499000095000202C2D0290039004902BD00BEB9B
:1049A000090100200DF1080C09EB00035E1CC8F89A
:1049B00000600F187A780CF800502C2A1AD09E1C30
:1049C000C8F80060BD780CEB00042C2D627011D08B
:1049D000DE1CC8F80060FA78A5702C2A0AD00433CF
:1049E000C8F800303D7904302C2DE270DCD18144D0
:1049F00001E000BFB14602AD2846FBF79AFB48F63E
:104A0000AD31C6F6DB0180FB010140F24400C2F289
:104A10000000066848F21F53C5F2EB1386FB030241
:104A2000081300EBD170511101EBD27427182846FE
:104A3000C8F804701D46FBF77CFB80FB050148119C
:104A400000EBD17080FB0512511101EBD271642291
:104A500001FB120004FB126108443C28C8F808005E
:104A6000A2BF3C380137C8E90170002F06D4182FC7
:104A70000FD301216FF0170203E000BF4FF0FF31A9
:104A800018221744D8F81820C8F804701144C8F840
:104A90001810019C0DF1080AC4E904705046FBF798
:104AA00048FB80FB0512511101EBD271642201FB1E
:104AB00012000021A06109F10100C8F800001BF8F4
:104AC000007002912C2F039104910BD10DF1080A73
:104AD0005046FBF727FB06282CD20225284605B0B6
:104AE000BDE8F08F0BEB0900002100BF09EB0102CC
:104AF000931CC8F8003043189D780AF801702C2DDB
:104B0000E4D0D71CC8F80070DF780AEB01042C2F22
:104B10006570DBD0161DC8F800601D79A7702C2DBC
:104B2000D4D00532C8F800205F7904312C2FE5700D
:104B3000DCD1CBE704465046FBF7FBFA07460020E2
:104B40004FF0FF310AEB01035A782E2A10D00246AB
:104B500098782E2810D0D8782E2813D01B79101DC5
:104B60002E2B01F10401EDD142F003030CE000BF54
:104B7000881C4B1C08E000BF42F0010342F0020019
:104B800002E000BFCB1C081D50446FEA0309FBF78D
:104B9000D0FA054638B2FBF761FC0023C4F2590392
:104BA0000022FBF7ECFB064628460091FBF756FC7B
:104BB000054604EB090002300F46FBF74FFC0B469D
:104BC00000210246C4F22401002001F0C3FA02468B
:104BD0000B4628463946FBF7D2FB0B4600990246A6
:104BE0003046FBF7B3FAFBF75DFCD8F80010019AEA
:104BF0001060481CC8F800001BF800001071C81CA9
:104C0000C8F800001BF8006000222C2E02920392CC
:104C1000049225D00BEB0100002200BF8B181F1D52
:104C2000C8F8007087183C790AF802602C2C17D05D
:104C30005E1DC8F800607E790AEB02052C2E6C70B0
:104C40000ED09C1DC8F80040BC79AE702C2C07D04B
:104C50000733C8F80030FE7904322C2EEC70DDD119
:104C60005046FBF766FA814600254FF0FF3000BF43
:104C70000AEB000251782E2910D0937829462E2B6A
:104C800010D0D3782E2B13D012790D1D2E2A00F1BF
:104C90000400EDD141F0030000900CE0851C0130D0
:104CA000009008E041F00100009041F0020502E0B0
:104CB000C11C051D00915046FBF734FA04460AEB6F
:104CC0000500FBF736FA07460FFA89F0FBF7C6FB3B
:104CD0000023C4F259030022FBF751FB81463846FA
:104CE0000E46FBF7BBFB074600980D46201A013025
:104CF000FBF7B4FB0B4600210246C4F2240100205E
:104D000001F028FA02460B4638462946FBF737FBE6
:104D100002460B4648463146FBF718FAFBF7C2FB42
:104D2000D8F80010DDF804904D1DC9F80800481CA3
:104D3000C8F800001BF80000C8F8005089F80C0003
:104D40001BF8056000202C2E02900390049029D0BF
:104D50000BEB010C002000BF0B189D1DC8F8005084
:104D60000CEB0007BA790AF800602C2A1AD0DD1D76
:104D7000C8F80050FE790AEB00042C2E627011D0A6
:104D800003F10805C8F800503A7AA6702C2A09D019
:104D90000933C8F800307E7A04302C2EE270DBD163
:104DA0000844451D02AE3046FBF7C3F9691EC9F839
:104DB000280000BF881CC8F800000BEB01029378A4
:104DC0002C2B13D0CB1CC8F80030D7782C2F10D048
:104DD000081DC8F8000017792C2F09D00531C8F834
:104DE000001051792C290146E4D102E0481C00E072
:104DF0001846811CC8F800101BF8015000222C2D09
:104E000002920392049224D00BEB000C002200BF0C
:104E10008318D91CC8F800100CEB0207F978B554B8
:104E20002C2916D01D1DC8F800503D79B4182C2D22
:104E300061700ED0591DC8F800107979A5702C2921
:104E400007D00633C8F80030BD7904322C2DE1704C
:104E5000DED13046FBF76DF981460027F05D2E2844
:104E60000CD0F01941782E290AD081782E2909D04A
:104E7000C07804372E28F1D105E000BF013702E0E9
:104E8000023700E003373046FBF74CF9C51BF01939
:104E9000FBF74FF906460FFA89F0FBF7DFFA814678
:104EA00030468A46FBF7DAFA064628460F46FBF7F5
:104EB000D5FA0B4600210246C4F224010020002549
:104EC00001F048F902460B4630463946FBF757FADF
:104ED0004A465346FBF73AF9FBF7E4FAD8F80010D4
:104EE000019A1062481CC8F800001BF8000082F804
:104EF0002400284605B0BDE8F08F00002DE9F04FF2
:104F000083B040F2441A8046C2F2000A0020CAF878
:104F1000000098F800208B462C2A20D0022000BFE9
:104F2000421ECAF8002008EB000111F8013C2C2BAE
:104F300014D0CAF8000018F800202C2A0FD0421C08
:104F4000CAF800204B782C2B08D0821CCAF800200D
:104F5000897804302C29E3D1023800E01046411E44
:104F6000881CCAF8000008EB010293782C2B13D0A0
:104F7000CB1CCAF80030D7782C2F10D0081DCAF8E7
:104F8000000017792C2F09D00531CAF8001051798B
:104F90002C290146E4D102E0481C00E01846811C9F
:104FA000CAF8001018F8011041293FD1012107303B
:104FB000CBF81410C11ECAF8001008EB000212F85A
:104FC000033C2C2B15D0811ECAF8001012F8023CAD
:104FD0002C2B0ED0411ECAF8001012F8012C2C2ADE
:104FE00007D0CAF8000018F8001004302C29E1D1CD
:104FF000011F0139881CCAF8000008EB01029378F0
:105000002C2B1BD0CB1CCAF80030D7782C2F18D0F3
:10501000081DCAF8000017792C2F11D00531CAF8E5
:10502000001051792C290146E4D10AE00020CBF888
:105030001400012003B0BDE8F08F00BF481C00E061
:1050400018460021424600BF4618B31CCAF800307B
:105050001418A7782C2F16D0F31CCAF80030E77864
:105060002C2F10D0331DCAF8003027792C2F0AD0EE
:10507000731DCAF80030637904322C2B01F104014E
:10508000E2D10844431C591E881CCAF8000008EBF2
:10509000010293782C2B13D0CB1CCAF80030D778A0
:1050A0002C2F10D0081DCAF8000017792C2F09D01A
:1050B0000531CAF8001051792C290146E4D102E0EB
:1050C000481C00E01846811CCAF8001018F801407E
:1050D0004FF0000C2C2CCDF800C0CDF804C0CDF85A
:1050E00008C043D008EB000E0023E946C218D11CCB
:1050F000CAF800100EEB0306F77809F803402C2FCE
:1051000019D0111DCAF80010347909EB03052C2CB5
:105110006F7010D0511DCAF800107779AC702C2F29
:1051200009D0911DCAF80010B47904332C2CEF700B
:10513000DCD11844811C9DF80000B8B148465F4698
:10514000FAF7F7FF0546002419F804002E2811D0BD
:1051500009EB040041782E290ED081782E290DD03C
:10516000C07804342E28EFD109E000BFCBF80CC082
:1051700034E000BF013402E0023400E0033448466A
:10518000FAF7D0FFA0EB040B09EB0400FAF7D1FF0C
:10519000064628B2FBF762F9814630460D46FBF71A
:1051A0005DF9064658460C46FBF758F90B460021B8
:1051B0000246C4F22401002000F0CCFF02460B4658
:1051C00030462146FBF7DBF84A462B46FAF7BEFF8E
:1051D000FBF768F9DAF80010BB46F8604A1CCAF819
:1051E000002018F802404FF0000C2C2CCDF800C025
:1051F000CDF804C0CDF808C044D008EB010E002360
:10520000E94600BFC818821CCAF800200EEB03064E
:10521000B77809F803402C2F19D0C21CCAF8002017
:10522000F47809EB03052C2C6F7010D0021DCAF81E
:1052300000203779AC702C2F09D00530CAF8000057
:10524000747904332C2CEF70DCD1C818421C9DF803
:105250000000B8B148465F46FAF76BFF05460024E8
:1052600019F804002E2811D009EB040041782E29EA
:105270000ED081782E290DD0C07804342E28EFD19D
:1052800009E000BFCBF810C034E000BF013402E0F9
:10529000023400E003344846FAF744FFA0EB040B65
:1052A00009EB0400FAF745FF064628B2FBF7D6F8EB
:1052B000054630468946FBF7D1F8064658460C4667
:1052C000FBF7CCF80B4600210246C4F22401002073
:1052D00000F040FF02460B4630462146FBF74FF8F0
:1052E0002A464B46FAF732FFFBF7DCF8DAF80020E3
:1052F000BB463861501CCAF8000018F80040002175
:105300002C2C00910191029144D16C462046FAF771
:1053100010FF48F6AD31C6F6DB0180FB0101081332
:1053200000EBD1752046CAF80C50FAF702FF48F29C
:105330001F56C5F2EB1680FB0601481100EBD17039
:1053400080FB0612511101EBD271642701FB17009B
:10535000CAF810002046FAF7ECFE80FB0612511145
:1053600001EBD27101FB1700DAF81810CAF814002B
:105370004819CAF80C00CBF80000DAF81000CBF896
:105380000400DAF81400CBF80800002003B0BDE8F0
:10539000F08F00BF08EB02000021EC465618B31C4A
:1053A000CAF800304518AF780CF801402C2FACD06B
:1053B000F31CCAF80030EC780CEB01032C2C5F7066
:1053C000A3D0371DCAF800702F799C702C2F9CD069
:1053D0000536CAF800606C7904312C2CDF70DDD101
:1053E00093E70000A0B0FCF7C5F800240120CDE948
:1053F0001B44CDE9194416901A904FF4E0104FF475
:10540000803102251F9016A8CDE90E44CDE917146E
:10541000CDE91D51FCF73AFF20B1EFF3108072B6D1
:10542000FEE700BF0F20CDE911054FF48060CDE904
:10543000140411A802211394FCF720FE20B1EFF30D
:10544000108072B6FEE700BF10200D9000240DA85A
:105450001094FCF78DFD28B1EFF3108072B600BFF9
:10546000FEE700BF41F21800C4F20200016844F2F6
:10547000004541F0200101600168C4F2000501F01F
:10548000200116911699016848F2A06241F00401CA
:10549000016001684FF4804301F0040116911699F0
:1054A0000168C0F2010241F008010160006805F5E1
:1054B000805100F008001690169840F28850C2F211
:1054C000000080E81600C0E90343C0E90544C0E9D4
:1054D0000744FBF701FD28B1EFF3108072B600BF5F
:1054E000FEE700BF40F64800C2F200004FF416513C
:1054F00000220C23C0E90051C0E90222C0E90423C4
:10550000C0E90622FDF7B2F820B1EFF3108072B6C1
:10551000FEE700BFFDF798FDFDF7BCFDFDF7B0FC11
:105520004FF4FA70FBF7B0FB40F22037C2F20007ED
:1055300040F2F80846F6DB4446F6D945C2F20008C8
:1055400046F6DF4907F12C0040F6900AC0F6000449
:10555000C0F60005C0F600090B90C2F2000A08F17F
:105560000C000A902DE000BF46F6DB4446F6D94514
:1055700040F2203740F2F80846F6DF490022C0F634
:105580000004C0F60005C2F20007C2F20008C0F62F
:10559000000946F6D2415044C0F6000100F0C4F8BC
:1055A0000A9E5146304600F0BFF840F26430C2F225
:1055B000000031464122FDF71FFEFBF787FCC8F8CB
:1055C0000000FDF7ADFCFDF7F5FC2046FFF738F8CD
:1055D000012812D140F29416C2F200062846314644
:1055E000FBF7A8FA30463946FFF7BCF800284FF021
:1055F000010008BF0220C8F804004846FFF720F861
:10560000012812D140F2F816C2F2000628463146AF
:10561000FBF790FA0B993046FFF770FC00284FF02B
:10562000010008BF0220C8F80800FBF74FFCD8F8BB
:105630000010401AB0F57A7FC3D3B868397BD7F829
:1056400000903C79D046D7F838A00C91FAF717FFB4
:10565000834648460D46FAF712FF064650460F4667
:10566000C246FAF70CFFCDE908010C9846F6E34173
:1056700002904046C0F600010122CDE9046706947D
:10568000CDF800B0019500F04FF84046FAF74AFD1A
:10569000C2B2002A3FF468AF511E40F2F80846F645
:1056A000DF49032900F0030CC2F20008C0F600092C
:1056B00002D20022002315E0ACEB020300226FF0BF
:1056C000030700BF0AEB070635797479B1796A40A0
:1056D00062400437F6795140DA19043286EA010251
:1056E000F0D13B1D46F6DB4446F6D94540F2203763
:1056F000C0F60004C0F60005C2F20007BCF1000FBE
:105700003FF447AF1AF80310BCF1010F82EA01021F
:105710003FF43FAF53445978BCF1020F82EA0102D3
:105720001CBF99784A4034E70FB4084B10B504A960
:1057300002AA039800F072F9044602A9002000F0C2
:1057400004FD204610BC5DF814FB00004B6100080E
:10575000490050EAC12018BF04204A0D18BF40F08C
:10576000010040F2FF72B2EB515F08BF40F002004F
:10577000012808BF0520704700487047000000203E
:105780002DE9F0414F1E00EBC7010446D1E90001AD
:1057900015461E4637F006020DD02A463346FAF764
:1057A0007CFD7F1E04EBC703D3E90023FAF7CEFC90
:1057B00037F00602F1D1022F25D0042F13D0062F87
:1057C00018BFBDE8F0812A463346FAF766FDD4E9F2
:1057D0000A23FAF7BBFC2A463346FAF75EFDD4E902
:1057E0000823FAF7B3FC2A463346FAF756FDD4E904
:1057F0000623FAF7ABFC2A463346FAF74EFDD4E906
:105800000423FAF7A3FC2A463346FAF746FDD4E907
:105810000223FAF79BFC2A463346FAF73EFDD4E909
:105820000023BDE8F041FAF791BC000000221346C6
:1058300010460149FAF7A3BD0000F03FFAF786BC15
:105840000022134610461146FAF799BD40F2013284
:1058500000204FF0E041FAF775BF0000024A002037
:105860001107FAF76FBF000001FDFFFF02E008C853
:10587000121F08C1002AFAD170477047002001E0CA
:1058800001C1121F002AFBD17047000001490860C6
:1058900070470000000000202DE9FF5F82B000216A
:1058A000DDE90430020DDDF840B0034318D044F6C2
:1058B0001050A2F2FF3242431514119801281FD054
:1058C000A5EB0B00401C5FEA000A4FF000064E4FAC
:1058D000DFF83891B046504615D5CAF1000413E000
:1058E000119801244AA3012801D16FEA0B01029803
:1058F000119AC0E90031C0E9024206B0BDE8F09F4C
:10590000CBF10000DFE704460021404A491842EB92
:105910000450CDE9001012E0E00707D032463B46C4
:1059200040464946FAF7B9FC8046894632463B462E
:1059300010461946FAF7B1FC06460F466410002CD3
:10594000EAD1DDE90401DDE90023BAF1000F06DA4E
:10595000FAF7A3FC42464B46FAF79FFC05E0FAF73C
:105960000EFD42464B46FAF70AFD04460E4600225B
:10597000284BFAF717FF03D84FF0FF30014607E036
:105980000022254B20463146FAF7E0FBFAF7F1FEFC
:10599000102409E0002C0ADB0A220023FAF7B4FDE8
:1059A000039B30321A55641E50EA0102F2D1641C86
:1059B000039AC4F111031444119A012A03D001225D
:1059C00008430DD10AE0084304D000204FF0110B2A
:1059D000119072E7A3EB0B056D1E0DE05B4504DD36
:1059E0004FF0000205F1010504E003DA4FF0000278
:1059F000A5F10105002AECD002981199C0E9023105
:105A0000C0E9004579E70000000014400000F03FC5
:105A1000300000000000F0430000E03F2DE9FF4FA0
:105A200095B09B468946064600250FE2252877D18A
:105A300000242746F84A0121059400E0044316F8A3
:105A4000013F203B01FA03F01042F7D130782A28B9
:105A500011D06FF02F033078A0F13002092A16D848
:105A6000059A44F0020402EB820203EB4202104466
:105A7000761C0590EFE759F8042B0592002A03DA0B
:105A8000504244F40054059044F00204761C3078EF
:105A90002E2816D116F8010F44F004042A280DD040
:105AA0006FF02F023078A0F13003092B09D807EBF3
:105AB000870302EB4303C718761CF3E759F8047B0E
:105AC000761C30786C280FD006DC4C2817D068285C
:105AD0000DD06A2814D104E0742810D07A280FD190
